{
  "_format": "hh-sol-artifact-1",
  "contractName": "Voting",
  "sourceName": "contracts/Voting.sol",
  "abi": [
    {
      "inputs": [],
      "stateMutability": "nonpayable",
      "type": "constructor"
    },
    {
      "inputs": [
        {
          "internalType": "address",
          "name": "owner",
          "type": "address"
        }
      ],
      "name": "OwnableInvalidOwner",
      "type": "error"
    },
    {
      "inputs": [
        {
          "internalType": "address",
          "name": "account",
          "type": "address"
        }
      ],
      "name": "OwnableUnauthorizedAccount",
      "type": "error"
    },
    {
      "anonymous": false,
      "inputs": [
        {
          "indexed": true,
          "internalType": "address",
          "name": "previousOwner",
          "type": "address"
        },
        {
          "indexed": true,
          "internalType": "address",
          "name": "newOwner",
          "type": "address"
        }
      ],
      "name": "OwnershipTransferred",
      "type": "event"
    },
    {
      "anonymous": false,
      "inputs": [
        {
          "indexed": false,
          "internalType": "uint256",
          "name": "proposalId",
          "type": "uint256"
        }
      ],
      "name": "ProposalRegistered",
      "type": "event"
    },
    {
      "anonymous": false,
      "inputs": [
        {
          "indexed": false,
          "internalType": "uint256",
          "name": "oldQuorum",
          "type": "uint256"
        },
        {
          "indexed": false,
          "internalType": "uint256",
          "name": "newQuorum",
          "type": "uint256"
        }
      ],
      "name": "QuorumUpdated",
      "type": "event"
    },
    {
      "anonymous": false,
      "inputs": [
        {
          "indexed": false,
          "internalType": "address",
          "name": "voter",
          "type": "address"
        },
        {
          "indexed": false,
          "internalType": "uint256",
          "name": "oldProposalId",
          "type": "uint256"
        },
        {
          "indexed": false,
          "internalType": "uint256",
          "name": "newProposalId",
          "type": "uint256"
        }
      ],
      "name": "VoteModified",
      "type": "event"
    },
    {
      "anonymous": false,
      "inputs": [
        {
          "indexed": false,
          "internalType": "address",
          "name": "voter",
          "type": "address"
        },
        {
          "indexed": false,
          "internalType": "uint256",
          "name": "proposalId",
          "type": "uint256"
        }
      ],
      "name": "Voted",
      "type": "event"
    },
    {
      "anonymous": false,
      "inputs": [
        {
          "indexed": false,
          "internalType": "address",
          "name": "voterAddress",
          "type": "address"
        }
      ],
      "name": "VoterRegistered",
      "type": "event"
    },
    {
      "anonymous": false,
      "inputs": [
        {
          "indexed": false,
          "internalType": "enum Voting.WorkflowStatus",
          "name": "previousStatus",
          "type": "uint8"
        },
        {
          "indexed": false,
          "internalType": "enum Voting.WorkflowStatus",
          "name": "newStatus",
          "type": "uint8"
        }
      ],
      "name": "WorkflowStatusChange",
      "type": "event"
    },
    {
      "inputs": [
        {
          "internalType": "address",
          "name": "_voter",
          "type": "address"
        }
      ],
      "name": "addVoter",
      "outputs": [],
      "stateMutability": "nonpayable",
      "type": "function"
    },
    {
      "inputs": [],
      "name": "endProposalsRegistration",
      "outputs": [],
      "stateMutability": "nonpayable",
      "type": "function"
    },
    {
      "inputs": [],
      "name": "endVotingSession",
      "outputs": [],
      "stateMutability": "nonpayable",
      "type": "function"
    },
    {
      "inputs": [],
      "name": "getCurrentParticipation",
      "outputs": [
        {
          "internalType": "uint256",
          "name": "",
          "type": "uint256"
        }
      ],
      "stateMutability": "view",
      "type": "function"
    },
    {
      "inputs": [],
      "name": "getProposalsCount",
      "outputs": [
        {
          "internalType": "uint256",
          "name": "",
          "type": "uint256"
        }
      ],
      "stateMutability": "view",
      "type": "function"
    },
    {
      "inputs": [
        {
          "internalType": "address",
          "name": "_voter",
          "type": "address"
        }
      ],
      "name": "getVoterInfo",
      "outputs": [
        {
          "internalType": "bool",
          "name": "hasVoted",
          "type": "bool"
        },
        {
          "internalType": "uint256",
          "name": "votedProposalId",
          "type": "uint256"
        }
      ],
      "stateMutability": "view",
      "type": "function"
    },
    {
      "inputs": [],
      "name": "getWhitelist",
      "outputs": [
        {
          "internalType": "address[]",
          "name": "",
          "type": "address[]"
        }
      ],
      "stateMutability": "view",
      "type": "function"
    },
    {
      "inputs": [],
      "name": "getWinningProposal",
      "outputs": [
        {
          "internalType": "string",
          "name": "",
          "type": "string"
        }
      ],
      "stateMutability": "view",
      "type": "function"
    },
    {
      "inputs": [],
      "name": "owner",
      "outputs": [
        {
          "internalType": "address",
          "name": "",
          "type": "address"
        }
      ],
      "stateMutability": "view",
      "type": "function"
    },
    {
      "inputs": [
        {
          "internalType": "uint256",
          "name": "",
          "type": "uint256"
        }
      ],
      "name": "proposals",
      "outputs": [
        {
          "internalType": "string",
          "name": "description",
          "type": "string"
        },
        {
          "internalType": "uint256",
          "name": "voteCount",
          "type": "uint256"
        }
      ],
      "stateMutability": "view",
      "type": "function"
    },
    {
      "inputs": [],
      "name": "quorumPercentage",
      "outputs": [
        {
          "internalType": "uint256",
          "name": "",
          "type": "uint256"
        }
      ],
      "stateMutability": "view",
      "type": "function"
    },
    {
      "inputs": [],
      "name": "renounceOwnership",
      "outputs": [],
      "stateMutability": "nonpayable",
      "type": "function"
    },
    {
      "inputs": [
        {
          "internalType": "uint256",
          "name": "_quorumPercentage",
          "type": "uint256"
        }
      ],
      "name": "setQuorum",
      "outputs": [],
      "stateMutability": "nonpayable",
      "type": "function"
    },
    {
      "inputs": [],
      "name": "startProposalsRegistration",
      "outputs": [],
      "stateMutability": "nonpayable",
      "type": "function"
    },
    {
      "inputs": [],
      "name": "startVotingSession",
      "outputs": [],
      "stateMutability": "nonpayable",
      "type": "function"
    },
    {
      "inputs": [
        {
          "internalType": "string",
          "name": "_description",
          "type": "string"
        }
      ],
      "name": "submitProposal",
      "outputs": [],
      "stateMutability": "nonpayable",
      "type": "function"
    },
    {
      "inputs": [],
      "name": "tallyVotes",
      "outputs": [],
      "stateMutability": "nonpayable",
      "type": "function"
    },
    {
      "inputs": [
        {
          "internalType": "address",
          "name": "newOwner",
          "type": "address"
        }
      ],
      "name": "transferOwnership",
      "outputs": [],
      "stateMutability": "nonpayable",
      "type": "function"
    },
    {
      "inputs": [
        {
          "internalType": "uint256",
          "name": "_proposalId",
          "type": "uint256"
        }
      ],
      "name": "vote",
      "outputs": [],
      "stateMutability": "nonpayable",
      "type": "function"
    },
    {
      "inputs": [
        {
          "internalType": "address",
          "name": "",
          "type": "address"
        }
      ],
      "name": "voters",
      "outputs": [
        {
          "internalType": "bool",
          "name": "isRegistered",
          "type": "bool"
        },
        {
          "internalType": "bool",
          "name": "hasVoted",
          "type": "bool"
        },
        {
          "internalType": "uint256",
          "name": "votedProposalId",
          "type": "uint256"
        }
      ],
      "stateMutability": "view",
      "type": "function"
    },
    {
      "inputs": [],
      "name": "votersCount",
      "outputs": [
        {
          "internalType": "uint256",
          "name": "",
          "type": "uint256"
        }
      ],
      "stateMutability": "view",
      "type": "function"
    },
    {
      "inputs": [],
      "name": "winningProposalId",
      "outputs": [
        {
          "internalType": "uint256",
          "name": "",
          "type": "uint256"
        }
      ],
      "stateMutability": "view",
      "type": "function"
    },
    {
      "inputs": [],
      "name": "workflowStatus",
      "outputs": [
        {
          "internalType": "enum Voting.WorkflowStatus",
          "name": "",
          "type": "uint8"
        }
      ],
      "stateMutability": "view",
      "type": "function"
    }
  ],
  "bytecode": "0x608060405234801561001057600080fd5b5033600073ffffffffffffffffffffffffffffffffffffffff168173ffffffffffffffffffffffffffffffffffffffff16036100845760006040517f1e4fbdf700000000000000000000000000000000000000000000000000000000815260040161007b91906101d0565b60405180910390fd5b610093816100cb60201b60201c565b5060008060146101000a81548160ff021916908360058111156100b9576100b86101eb565b5b0217905550603260058190555061021a565b60008060009054906101000a900473ffffffffffffffffffffffffffffffffffffffff169050816000806101000a81548173ffffffffffffffffffffffffffffffffffffffff021916908373ffffffffffffffffffffffffffffffffffffffff1602179055508173ffffffffffffffffffffffffffffffffffffffff168173ffffffffffffffffffffffffffffffffffffffff167f8be0079c531659141344cd1fd0a4f28419497f9722a3daafe3b4186f6b6457e060405160405180910390a35050565b600073ffffffffffffffffffffffffffffffffffffffff82169050919050565b60006101ba8261018f565b9050919050565b6101ca816101af565b82525050565b60006020820190506101e560008301846101c1565b92915050565b7f4e487b7100000000000000000000000000000000000000000000000000000000600052602160045260246000fd5b612de0806102296000396000f3fe608060405234801561001057600080fd5b506004361061014d5760003560e01c80639ed1f255116100c3578063c64963c51161007c578063c64963c514610334578063d01f63f514610352578063e09b8c7914610370578063ee74c6781461037a578063f2fde38b14610384578063f4ab9adf146103a05761014d565b80639ed1f2551461026f578063a1edffa2146102a0578063a3ec138d146102be578063a5134620146102f0578063a7bfab161461030e578063c1ba4e59146103185761014d565b80636c297445116101155780636c297445146101e3578063715018a6146101ed57806382e2585b146101f75780638da5cb5b1461021557806398c079381461023357806398e527d3146102515761014d565b80630121b93f14610152578063013cf08b1461016e578063373d6d5e1461019f578063378a2178146101bb5780634fa76ec9146101c5575b600080fd5b61016c60048036038101906101679190611ca8565b6103bc565b005b61018860048036038101906101839190611ca8565b6107bb565b604051610196929190611d74565b60405180910390f35b6101b960048036038101906101b49190611ed9565b610877565b005b6101c3610a2a565b005b6101cd610cd2565b6040516101da9190611f22565b60405180910390f35b6101eb610cd8565b005b6101f5610e4c565b005b6101ff610e60565b60405161020c9190611f22565b60405180910390f35b61021d610ee7565b60405161022a9190611f7e565b60405180910390f35b61023b610f10565b6040516102489190611f22565b60405180910390f35b610259610f16565b6040516102669190611f22565b60405180910390f35b61028960048036038101906102849190611fc5565b610f23565b60405161029792919061200d565b60405180910390f35b6102a861109b565b6040516102b591906120ad565b60405180910390f35b6102d860048036038101906102d39190611fc5565b6110ae565b6040516102e7939291906120c8565b60405180910390f35b6102f86110f2565b60405161030591906120ff565b60405180910390f35b61031661121e565b005b610332600480360381019061032d9190611ca8565b611392565b005b61033c611498565b6040516103499190611f22565b60405180910390f35b61035a61149e565b60405161036791906121df565b60405180910390f35b61037861152c565b005b6103826116a0565b005b61039e60048036038101906103999190611fc5565b611814565b005b6103ba60048036038101906103b59190611fc5565b61189a565b005b600160003373ffffffffffffffffffffffffffffffffffffffff1673ffffffffffffffffffffffffffffffffffffffff16815260200190815260200160002060000160009054906101000a900460ff1661044b576040517f08c379a000000000000000000000000000000000000000000000000000000000815260040161044290612273565b60405180910390fd5b6003600581111561045f5761045e612036565b5b600060149054906101000a900460ff16600581111561048157610480612036565b5b146104c1576040517f08c379a00000000000000000000000000000000000000000000000000000000081526004016104b8906122df565b60405180910390fd5b6002805490508110610508576040517f08c379a00000000000000000000000000000000000000000000000000000000081526004016104ff9061234b565b60405180910390fd5b600160003373ffffffffffffffffffffffffffffffffffffffff1673ffffffffffffffffffffffffffffffffffffffff16815260200190815260200160002060000160019054906101000a900460ff16156106a2576000600160003373ffffffffffffffffffffffffffffffffffffffff1673ffffffffffffffffffffffffffffffffffffffff168152602001908152602001600020600101549050600281815481106105b8576105b761236b565b5b906000526020600020906002020160010160008154809291906105da906123c9565b919050555081600160003373ffffffffffffffffffffffffffffffffffffffff1673ffffffffffffffffffffffffffffffffffffffff168152602001908152602001600020600101819055506002828154811061063a5761063961236b565b5b9060005260206000209060020201600101600081548092919061065c906123f2565b91905055507fd1805cace3cdd559b07e0db88241258cd237aab6058dabf0c6b30a445d0b272a3382846040516106949392919061243a565b60405180910390a1506107b8565b60018060003373ffffffffffffffffffffffffffffffffffffffff1673ffffffffffffffffffffffffffffffffffffffff16815260200190815260200160002060000160016101000a81548160ff02191690831515021790555080600160003373ffffffffffffffffffffffffffffffffffffffff1673ffffffffffffffffffffffffffffffffffffffff16815260200190815260200160002060010181905550600281815481106107575761075661236b565b5b90600052602060002090600202016001016000815480929190610779906123f2565b91905055507f4d99b957a2bc29a30ebd96a7be8e68fe50a3c701db28a91436490b7d53870ca433826040516107af929190612471565b60405180910390a15b50565b600281815481106107cb57600080fd5b90600052602060002090600202016000915090508060000180546107ee906124c9565b80601f016020809104026020016040519081016040528092919081815260200182805461081a906124c9565b80156108675780601f1061083c57610100808354040283529160200191610867565b820191906000526020600020905b81548152906001019060200180831161084a57829003601f168201915b5050505050908060010154905082565b600160003373ffffffffffffffffffffffffffffffffffffffff1673ffffffffffffffffffffffffffffffffffffffff16815260200190815260200160002060000160009054906101000a900460ff16610906576040517f08c379a00000000000000000000000000000000000000000000000000000000081526004016108fd90612273565b60405180910390fd5b6001600581111561091a57610919612036565b5b600060149054906101000a900460ff16600581111561093c5761093b612036565b5b1461097c576040517f08c379a00000000000000000000000000000000000000000000000000000000081526004016109739061256c565b60405180910390fd5b600260405180604001604052808381526020016000815250908060018154018082558091505060019003906000526020600020906002020160009091909190915060008201518160000190816109d29190612738565b506020820151816001015550507f92e393e9b54e2f801d3ea4beb0c5e71a21cc34a5d34b77d0fb8a3aa1650dc18f6001600280549050610a12919061280a565b604051610a1f9190611f22565b60405180910390a150565b3373ffffffffffffffffffffffffffffffffffffffff16610a49610ee7565b73ffffffffffffffffffffffffffffffffffffffff1614610a9f576040517f08c379a0000000000000000000000000000000000000000000000000000000008152600401610a96906128b0565b60405180910390fd5b60046005811115610ab357610ab2612036565b5b600060149054906101000a900460ff166005811115610ad557610ad4612036565b5b14610b15576040517f08c379a0000000000000000000000000000000000000000000000000000000008152600401610b0c90612942565b60405180910390fd5b6000805b600280549050811015610b665760028181548110610b3a57610b3961236b565b5b90600052602060002090600202016001015482610b579190612962565b91508080600101915050610b19565b506000600654606483610b799190612996565b610b839190612a07565b9050600554811015610bca576040517f08c379a0000000000000000000000000000000000000000000000000000000008152600401610bc190612aaa565b60405180910390fd5b6000805b600280549050811015610c45578160028281548110610bf057610bef61236b565b5b9060005260206000209060020201600101541115610c385760028181548110610c1c57610c1b61236b565b5b9060005260206000209060020201600101549150806004819055505b8080600101915050610bce565b5060008060149054906101000a900460ff1690506005600060146101000a81548160ff02191690836005811115610c7f57610c7e612036565b5b02179055507f0a97a4ee45751e2abf3e4fc8946939630b11b371ea8ae39ccdc3056e98f5cc3f81600060149054906101000a900460ff16604051610cc4929190612aca565b60405180910390a150505050565b60055481565b3373ffffffffffffffffffffffffffffffffffffffff16610cf7610ee7565b73ffffffffffffffffffffffffffffffffffffffff1614610d4d576040517f08c379a0000000000000000000000000000000000000000000000000000000008152600401610d44906128b0565b60405180910390fd5b60016005811115610d6157610d60612036565b5b600060149054906101000a900460ff166005811115610d8357610d82612036565b5b14610dc3576040517f08c379a0000000000000000000000000000000000000000000000000000000008152600401610dba90612942565b60405180910390fd5b60008060149054906101000a900460ff1690506002600060146101000a81548160ff02191690836005811115610dfc57610dfb612036565b5b02179055507f0a97a4ee45751e2abf3e4fc8946939630b11b371ea8ae39ccdc3056e98f5cc3f81600060149054906101000a900460ff16604051610e41929190612aca565b60405180910390a150565b610e54611b0b565b610e5e6000611b92565b565b60008060065403610e745760009050610ee4565b6000805b600280549050811015610ec55760028181548110610e9957610e9861236b565b5b90600052602060002090600202016001015482610eb69190612962565b91508080600101915050610e78565b50600654606482610ed69190612996565b610ee09190612a07565b9150505b90565b60008060009054906101000a900473ffffffffffffffffffffffffffffffffffffffff16905090565b60065481565b6000600280549050905090565b600080600160003373ffffffffffffffffffffffffffffffffffffffff1673ffffffffffffffffffffffffffffffffffffffff16815260200190815260200160002060000160009054906101000a900460ff16610fb5576040517f08c379a0000000000000000000000000000000000000000000000000000000008152600401610fac90612273565b60405180910390fd5b6000600160008573ffffffffffffffffffffffffffffffffffffffff1673ffffffffffffffffffffffffffffffffffffffff1681526020019081526020016000206040518060600160405290816000820160009054906101000a900460ff161515151581526020016000820160019054906101000a900460ff1615151515815260200160018201548152505090508060000151611087576040517f08c379a000000000000000000000000000000000000000000000000000000000815260040161107e90612b3f565b60405180910390fd5b806020015181604001519250925050915091565b600060149054906101000a900460ff1681565b60016020528060005260406000206000915090508060000160009054906101000a900460ff16908060000160019054906101000a900460ff16908060010154905083565b606060058081111561110757611106612036565b5b600060149054906101000a900460ff16600581111561112957611128612036565b5b14611169576040517f08c379a000000000000000000000000000000000000000000000000000000000815260040161116090612bd1565b60405180910390fd5b60026004548154811061117f5761117e61236b565b5b9060005260206000209060020201600001805461119b906124c9565b80601f01602080910402602001604051908101604052809291908181526020018280546111c7906124c9565b80156112145780601f106111e957610100808354040283529160200191611214565b820191906000526020600020905b8154815290600101906020018083116111f757829003601f168201915b5050505050905090565b3373ffffffffffffffffffffffffffffffffffffffff1661123d610ee7565b73ffffffffffffffffffffffffffffffffffffffff1614611293576040517f08c379a000000000000000000000000000000000000000000000000000000000815260040161128a906128b0565b60405180910390fd5b600360058111156112a7576112a6612036565b5b600060149054906101000a900460ff1660058111156112c9576112c8612036565b5b14611309576040517f08c379a000000000000000000000000000000000000000000000000000000000815260040161130090612942565b60405180910390fd5b60008060149054906101000a900460ff1690506004600060146101000a81548160ff0219169083600581111561134257611341612036565b5b02179055507f0a97a4ee45751e2abf3e4fc8946939630b11b371ea8ae39ccdc3056e98f5cc3f81600060149054906101000a900460ff16604051611387929190612aca565b60405180910390a150565b3373ffffffffffffffffffffffffffffffffffffffff166113b1610ee7565b73ffffffffffffffffffffffffffffffffffffffff1614611407576040517f08c379a00000000000000000000000000000000000000000000000000000000081526004016113fe906128b0565b60405180910390fd5b606481111561144b576040517f08c379a000000000000000000000000000000000000000000000000000000000815260040161144290612c63565b60405180910390fd5b60006005549050816005819055507f6784e9bcb845caaa98267d7b0918f97d3d17f7cb35a05b52010f7eb587a0acb08160055460405161148c929190612c83565b60405180910390a15050565b60045481565b6060600380548060200260200160405190810160405280929190818152602001828054801561152257602002820191906000526020600020905b8160009054906101000a900473ffffffffffffffffffffffffffffffffffffffff1673ffffffffffffffffffffffffffffffffffffffff16815260200190600101908083116114d8575b5050505050905090565b3373ffffffffffffffffffffffffffffffffffffffff1661154b610ee7565b73ffffffffffffffffffffffffffffffffffffffff16146115a1576040517f08c379a0000000000000000000000000000000000000000000000000000000008152600401611598906128b0565b60405180910390fd5b600060058111156115b5576115b4612036565b5b600060149054906101000a900460ff1660058111156115d7576115d6612036565b5b14611617576040517f08c379a000000000000000000000000000000000000000000000000000000000815260040161160e90612942565b60405180910390fd5b60008060149054906101000a900460ff1690506001600060146101000a81548160ff021916908360058111156116505761164f612036565b5b02179055507f0a97a4ee45751e2abf3e4fc8946939630b11b371ea8ae39ccdc3056e98f5cc3f81600060149054906101000a900460ff16604051611695929190612aca565b60405180910390a150565b3373ffffffffffffffffffffffffffffffffffffffff166116bf610ee7565b73ffffffffffffffffffffffffffffffffffffffff1614611715576040517f08c379a000000000000000000000000000000000000000000000000000000000815260040161170c906128b0565b60405180910390fd5b6002600581111561172957611728612036565b5b600060149054906101000a900460ff16600581111561174b5761174a612036565b5b1461178b576040517f08c379a000000000000000000000000000000000000000000000000000000000815260040161178290612942565b60405180910390fd5b60008060149054906101000a900460ff1690506003600060146101000a81548160ff021916908360058111156117c4576117c3612036565b5b02179055507f0a97a4ee45751e2abf3e4fc8946939630b11b371ea8ae39ccdc3056e98f5cc3f81600060149054906101000a900460ff16604051611809929190612aca565b60405180910390a150565b61181c611b0b565b600073ffffffffffffffffffffffffffffffffffffffff168173ffffffffffffffffffffffffffffffffffffffff160361188e5760006040517f1e4fbdf70000000000000000000000000000000000000000000000000000000081526004016118859190611f7e565b60405180910390fd5b61189781611b92565b50565b6118a2611b0b565b600060058111156118b6576118b5612036565b5b600060149054906101000a900460ff1660058111156118d8576118d7612036565b5b14611918576040517f08c379a000000000000000000000000000000000000000000000000000000000815260040161190f90612d1e565b60405180910390fd5b600160008273ffffffffffffffffffffffffffffffffffffffff1673ffffffffffffffffffffffffffffffffffffffff16815260200190815260200160002060000160009054906101000a900460ff16156119a8576040517f08c379a000000000000000000000000000000000000000000000000000000000815260040161199f90612d8a565b60405180910390fd5b60405180606001604052806001151581526020016000151581526020016000815250600160008373ffffffffffffffffffffffffffffffffffffffff1673ffffffffffffffffffffffffffffffffffffffff16815260200190815260200160002060008201518160000160006101000a81548160ff02191690831515021790555060208201518160000160016101000a81548160ff0219169083151502179055506040820151816001015590505060066000815480929190611a69906123f2565b91905055506003819080600181540180825580915050600190039060005260206000200160009091909190916101000a81548173ffffffffffffffffffffffffffffffffffffffff021916908373ffffffffffffffffffffffffffffffffffffffff1602179055507fb6be2187d059cc2a55fe29e0e503b566e1e0f8c8780096e185429350acffd3dd81604051611b009190611f7e565b60405180910390a150565b611b13611c56565b73ffffffffffffffffffffffffffffffffffffffff16611b31610ee7565b73ffffffffffffffffffffffffffffffffffffffff1614611b9057611b54611c56565b6040517f118cdaa7000000000000000000000000000000000000000000000000000000008152600401611b879190611f7e565b60405180910390fd5b565b60008060009054906101000a900473ffffffffffffffffffffffffffffffffffffffff169050816000806101000a81548173ffffffffffffffffffffffffffffffffffffffff021916908373ffffffffffffffffffffffffffffffffffffffff1602179055508173ffffffffffffffffffffffffffffffffffffffff168173ffffffffffffffffffffffffffffffffffffffff167f8be0079c531659141344cd1fd0a4f28419497f9722a3daafe3b4186f6b6457e060405160405180910390a35050565b600033905090565b6000604051905090565b600080fd5b600080fd5b6000819050919050565b611c8581611c72565b8114611c9057600080fd5b50565b600081359050611ca281611c7c565b92915050565b600060208284031215611cbe57611cbd611c68565b5b6000611ccc84828501611c93565b91505092915050565b600081519050919050565b600082825260208201905092915050565b60005b83811015611d0f578082015181840152602081019050611cf4565b60008484015250505050565b6000601f19601f8301169050919050565b6000611d3782611cd5565b611d418185611ce0565b9350611d51818560208601611cf1565b611d5a81611d1b565b840191505092915050565b611d6e81611c72565b82525050565b60006040820190508181036000830152611d8e8185611d2c565b9050611d9d6020830184611d65565b9392505050565b600080fd5b600080fd5b7f4e487b7100000000000000000000000000000000000000000000000000000000600052604160045260246000fd5b611de682611d1b565b810181811067ffffffffffffffff82111715611e0557611e04611dae565b5b80604052505050565b6000611e18611c5e565b9050611e248282611ddd565b919050565b600067ffffffffffffffff821115611e4457611e43611dae565b5b611e4d82611d1b565b9050602081019050919050565b82818337600083830152505050565b6000611e7c611e7784611e29565b611e0e565b905082815260208101848484011115611e9857611e97611da9565b5b611ea3848285611e5a565b509392505050565b600082601f830112611ec057611ebf611da4565b5b8135611ed0848260208601611e69565b91505092915050565b600060208284031215611eef57611eee611c68565b5b600082013567ffffffffffffffff811115611f0d57611f0c611c6d565b5b611f1984828501611eab565b91505092915050565b6000602082019050611f376000830184611d65565b92915050565b600073ffffffffffffffffffffffffffffffffffffffff82169050919050565b6000611f6882611f3d565b9050919050565b611f7881611f5d565b82525050565b6000602082019050611f936000830184611f6f565b92915050565b611fa281611f5d565b8114611fad57600080fd5b50565b600081359050611fbf81611f99565b92915050565b600060208284031215611fdb57611fda611c68565b5b6000611fe984828501611fb0565b91505092915050565b60008115159050919050565b61200781611ff2565b82525050565b60006040820190506120226000830185611ffe565b61202f6020830184611d65565b9392505050565b7f4e487b7100000000000000000000000000000000000000000000000000000000600052602160045260246000fd5b6006811061207657612075612036565b5b50565b600081905061208782612065565b919050565b600061209782612079565b9050919050565b6120a78161208c565b82525050565b60006020820190506120c2600083018461209e565b92915050565b60006060820190506120dd6000830186611ffe565b6120ea6020830185611ffe565b6120f76040830184611d65565b949350505050565b600060208201905081810360008301526121198184611d2c565b905092915050565b600081519050919050565b600082825260208201905092915050565b6000819050602082019050919050565b61215681611f5d565b82525050565b6000612168838361214d565b60208301905092915050565b6000602082019050919050565b600061218c82612121565b612196818561212c565b93506121a18361213d565b8060005b838110156121d25781516121b9888261215c565b97506121c483612174565b9250506001810190506121a5565b5085935050505092915050565b600060208201905081810360008301526121f98184612181565b905092915050565b7f566f7573206e20657465732070617320737572206c61206c6973746520626c6160008201527f6e63686500000000000000000000000000000000000000000000000000000000602082015250565b600061225d602483611ce0565b915061226882612201565b604082019050919050565b6000602082019050818103600083015261228c81612250565b9050919050565b7f4c6520766f746520657374206665726d65000000000000000000000000000000600082015250565b60006122c9601183611ce0565b91506122d482612293565b602082019050919050565b600060208201905081810360008301526122f8816122bc565b9050919050565b7f49442064652070726f706f736974696f6e20696e76616c696465000000000000600082015250565b6000612335601a83611ce0565b9150612340826122ff565b602082019050919050565b6000602082019050818103600083015261236481612328565b9050919050565b7f4e487b7100000000000000000000000000000000000000000000000000000000600052603260045260246000fd5b7f4e487b7100000000000000000000000000000000000000000000000000000000600052601160045260246000fd5b60006123d482611c72565b9150600082036123e7576123e661239a565b5b600182039050919050565b60006123fd82611c72565b91507fffffffffffffffffffffffffffffffffffffffffffffffffffffffffffffffff820361242f5761242e61239a565b5b600182019050919050565b600060608201905061244f6000830186611f6f565b61245c6020830185611d65565b6124696040830184611d65565b949350505050565b60006040820190506124866000830185611f6f565b6124936020830184611d65565b9392505050565b7f4e487b7100000000000000000000000000000000000000000000000000000000600052602260045260246000fd5b600060028204905060018216806124e157607f821691505b6020821081036124f4576124f361249a565b5b50919050565b7f4c20656e72656769737472656d656e74206465732070726f706f736974696f6e60008201527f7320657374206665726d65000000000000000000000000000000000000000000602082015250565b6000612556602b83611ce0565b9150612561826124fa565b604082019050919050565b6000602082019050818103600083015261258581612549565b9050919050565b60008190508160005260206000209050919050565b60006020601f8301049050919050565b600082821b905092915050565b6000600883026125ee7fffffffffffffffffffffffffffffffffffffffffffffffffffffffffffffffff826125b1565b6125f886836125b1565b95508019841693508086168417925050509392505050565b6000819050919050565b600061263561263061262b84611c72565b612610565b611c72565b9050919050565b6000819050919050565b61264f8361261a565b61266361265b8261263c565b8484546125be565b825550505050565b600090565b61267861266b565b612683818484612646565b505050565b5b818110156126a75761269c600082612670565b600181019050612689565b5050565b601f8211156126ec576126bd8161258c565b6126c6846125a1565b810160208510156126d5578190505b6126e96126e1856125a1565b830182612688565b50505b505050565b600082821c905092915050565b600061270f600019846008026126f1565b1980831691505092915050565b600061272883836126fe565b9150826002028217905092915050565b61274182611cd5565b67ffffffffffffffff81111561275a57612759611dae565b5b61276482546124c9565b61276f8282856126ab565b600060209050601f8311600181146127a25760008415612790578287015190505b61279a858261271c565b865550612802565b601f1984166127b08661258c565b60005b828110156127d8578489015182556001820191506020850194506020810190506127b3565b868310156127f557848901516127f1601f8916826126fe565b8355505b6001600288020188555050505b505050505050565b600061281582611c72565b915061282083611c72565b92508282039050818111156128385761283761239a565b5b92915050565b7f5365756c206c2061646d696e697374726174657572207065757420656666656360008201527f7475657220636574746520616374696f6e000000000000000000000000000000602082015250565b600061289a603183611ce0565b91506128a58261283e565b604082019050919050565b600060208201905081810360008301526128c98161288d565b9050919050565b7f4c20657461742061637475656c206e65207065726d657420706173206365747460008201527f6520616374696f6e000000000000000000000000000000000000000000000000602082015250565b600061292c602883611ce0565b9150612937826128d0565b604082019050919050565b6000602082019050818103600083015261295b8161291f565b9050919050565b600061296d82611c72565b915061297883611c72565b92508282019050808211156129905761298f61239a565b5b92915050565b60006129a182611c72565b91506129ac83611c72565b92508282026129ba81611c72565b915082820484148315176129d1576129d061239a565b5b5092915050565b7f4e487b7100000000000000000000000000000000000000000000000000000000600052601260045260246000fd5b6000612a1282611c72565b9150612a1d83611c72565b925082612a2d57612a2c6129d8565b5b828204905092915050565b7f4c652071756f72756d2064652070617274696369706174696f6e206d696e696d60008201527f756d206e276120706173206574652061747465696e7400000000000000000000602082015250565b6000612a94603683611ce0565b9150612a9f82612a38565b604082019050919050565b60006020820190508181036000830152612ac381612a87565b9050919050565b6000604082019050612adf600083018561209e565b612aec602083018461209e565b9392505050565b7f4c27656c656374657572206e276573742070617320656e726567697374726500600082015250565b6000612b29601f83611ce0565b9150612b3482612af3565b602082019050919050565b60006020820190508181036000830152612b5881612b1c565b9050919050565b7f4c657320766f746573206e6520736f6e742070617320656e636f726520636f6d60008201527f70746162696c6973657300000000000000000000000000000000000000000000602082015250565b6000612bbb602a83611ce0565b9150612bc682612b5f565b604082019050919050565b60006020820190508181036000830152612bea81612bae565b9050919050565b7f4c6520706f757263656e7461676520646f6974206574726520656e747265203060008201527f2065742031303000000000000000000000000000000000000000000000000000602082015250565b6000612c4d602783611ce0565b9150612c5882612bf1565b604082019050919050565b60006020820190508181036000830152612c7c81612c40565b9050919050565b6000604082019050612c986000830185611d65565b612ca56020830184611d65565b9392505050565b7f456e72656769737472656d656e742064657320656c656374657572732066657260008201527f6d65000000000000000000000000000000000000000000000000000000000000602082015250565b6000612d08602283611ce0565b9150612d1382612cac565b604082019050919050565b60006020820190508181036000830152612d3781612cfb565b9050919050565b7f43657420656c656374657572206573742064656a6120696e7363726974000000600082015250565b6000612d74601d83611ce0565b9150612d7f82612d3e565b602082019050919050565b60006020820190508181036000830152612da381612d67565b905091905056fea264697066735822122005cc7e184eca972413b7cc20aa47ec265ba3b49aa3d0540233c4b3e7ad2b71b564736f6c634300081c0033",
  "linkReferences": {},
  "deployedLinkReferences": {}
}